{"abi":[{"type":"constructor","inputs":[],"stateMutability":"nonpayable"},{"type":"fallback","stateMutability":"payable"},{"type":"receive","stateMutability":"payable"},{"type":"function","name":"CONVERSION_AMOUNT","inputs":[],"outputs":[{"name":"","type":"uint256","internalType":"uint256"}],"stateMutability":"view"},{"type":"function","name":"ETHG_TOKEN","inputs":[],"outputs":[{"name":"","type":"address","internalType":"address"}],"stateMutability":"view"},{"type":"function","name":"FOUNDATION_WALLET","inputs":[],"outputs":[{"name":"","type":"address","internalType":"address"}],"stateMutability":"view"},{"type":"function","name":"MIN_ETH_OUTPUT","inputs":[],"outputs":[{"name":"","type":"uint256","internalType":"uint256"}],"stateMutability":"view"},{"type":"function","name":"TARGET_ETHGR_MINT","inputs":[],"outputs":[{"name":"","type":"uint256","internalType":"uint256"}],"stateMutability":"view"},{"type":"function","name":"UNISWAP_ROUTER","inputs":[],"outputs":[{"name":"","type":"address","internalType":"address"}],"stateMutability":"view"},{"type":"function","name":"allowance","inputs":[{"name":"owner","type":"address","internalType":"address"},{"name":"spender","type":"address","internalType":"address"}],"outputs":[{"name":"","type":"uint256","internalType":"uint256"}],"stateMutability":"view"},{"type":"function","name":"approve","inputs":[{"name":"spender","type":"address","internalType":"address"},{"name":"value","type":"uint256","internalType":"uint256"}],"outputs":[{"name":"","type":"bool","internalType":"bool"}],"stateMutability":"nonpayable"},{"type":"function","name":"balanceOf","inputs":[{"name":"account","type":"address","internalType":"address"}],"outputs":[{"name":"","type":"uint256","internalType":"uint256"}],"stateMutability":"view"},{"type":"function","name":"calculateReliefAmount","inputs":[],"outputs":[{"name":"","type":"uint256","internalType":"uint256"}],"stateMutability":"view"},{"type":"function","name":"contractVerified","inputs":[],"outputs":[{"name":"","type":"bool","internalType":"bool"}],"stateMutability":"view"},{"type":"function","name":"decimals","inputs":[],"outputs":[{"name":"","type":"uint8","internalType":"uint8"}],"stateMutability":"view"},{"type":"function","name":"emergencyWithdraw","inputs":[],"outputs":[],"stateMutability":"nonpayable"},{"type":"function","name":"estimateETHOutput","inputs":[{"name":"ethgAmount","type":"uint256","internalType":"uint256"}],"outputs":[{"name":"","type":"uint256","internalType":"uint256"}],"stateMutability":"view"},{"type":"function","name":"executeCompleteRecovery","inputs":[],"outputs":[],"stateMutability":"nonpayable"},{"type":"function","name":"fundsDistributed","inputs":[],"outputs":[{"name":"","type":"bool","internalType":"bool"}],"stateMutability":"view"},{"type":"function","name":"gasFeesReserved","inputs":[],"outputs":[{"name":"","type":"uint256","internalType":"uint256"}],"stateMutability":"view"},{"type":"function","name":"getRecoveryStatus","inputs":[],"outputs":[{"name":"verified","type":"bool","internalType":"bool"},{"name":"completed","type":"bool","internalType":"bool"},{"name":"distributed","type":"bool","internalType":"bool"},{"name":"ethRecovered","type":"uint256","internalType":"uint256"},{"name":"gasReserved","type":"uint256","internalType":"uint256"},{"name":"contractBalance","type":"uint256","internalType":"uint256"}],"stateMutability":"view"},{"type":"function","name":"migrationCompleted","inputs":[],"outputs":[{"name":"","type":"bool","internalType":"bool"}],"stateMutability":"view"},{"type":"function","name":"name","inputs":[],"outputs":[{"name":"","type":"string","internalType":"string"}],"stateMutability":"view"},{"type":"function","name":"owner","inputs":[],"outputs":[{"name":"","type":"address","internalType":"address"}],"stateMutability":"view"},{"type":"function","name":"payGasFees","inputs":[],"outputs":[],"stateMutability":"nonpayable"},{"type":"function","name":"renounceOwnership","inputs":[],"outputs":[],"stateMutability":"nonpayable"},{"type":"function","name":"symbol","inputs":[],"outputs":[{"name":"","type":"string","internalType":"string"}],"stateMutability":"view"},{"type":"function","name":"totalETHRecovered","inputs":[],"outputs":[{"name":"","type":"uint256","internalType":"uint256"}],"stateMutability":"view"},{"type":"function","name":"totalSupply","inputs":[],"outputs":[{"name":"","type":"uint256","internalType":"uint256"}],"stateMutability":"view"},{"type":"function","name":"transfer","inputs":[{"name":"to","type":"address","internalType":"address"},{"name":"value","type":"uint256","internalType":"uint256"}],"outputs":[{"name":"","type":"bool","internalType":"bool"}],"stateMutability":"nonpayable"},{"type":"function","name":"transferFrom","inputs":[{"name":"from","type":"address","internalType":"address"},{"name":"to","type":"address","internalType":"address"},{"name":"value","type":"uint256","internalType":"uint256"}],"outputs":[{"name":"","type":"bool","internalType":"bool"}],"stateMutability":"nonpayable"},{"type":"function","name":"transferOwnership","inputs":[{"name":"newOwner","type":"address","internalType":"address"}],"outputs":[],"stateMutability":"nonpayable"},{"type":"event","name":"Approval","inputs":[{"name":"owner","type":"address","indexed":true,"internalType":"address"},{"name":"spender","type":"address","indexed":true,"internalType":"address"},{"name":"value","type":"uint256","indexed":false,"internalType":"uint256"}],"anonymous":false},{"type":"event","name":"ContractSelfVerified","inputs":[{"name":"contract_address","type":"address","indexed":true,"internalType":"address"},{"name":"timestamp","type":"uint256","indexed":false,"internalType":"uint256"}],"anonymous":false},{"type":"event","name":"ETHGConverted","inputs":[{"name":"ethgAmount","type":"uint256","indexed":false,"internalType":"uint256"},{"name":"ethReceived","type":"uint256","indexed":false,"internalType":"uint256"}],"anonymous":false},{"type":"event","name":"EmergencyWithdrawal","inputs":[{"name":"amount","type":"uint256","indexed":false,"internalType":"uint256"},{"name":"recipient","type":"address","indexed":true,"internalType":"address"}],"anonymous":false},{"type":"event","name":"GasFeesReserved","inputs":[{"name":"amount","type":"uint256","indexed":false,"internalType":"uint256"}],"anonymous":false},{"type":"event","name":"OwnershipTransferred","inputs":[{"name":"previousOwner","type":"address","indexed":true,"internalType":"address"},{"name":"newOwner","type":"address","indexed":true,"internalType":"address"}],"anonymous":false},{"type":"event","name":"ReliefFundsDistributed","inputs":[{"name":"amount","type":"uint256","indexed":false,"internalType":"uint256"},{"name":"foundation","type":"address","indexed":true,"internalType":"address"}],"anonymous":false},{"type":"event","name":"TokensMinted","inputs":[{"name":"amount","type":"uint256","indexed":false,"internalType":"uint256"},{"name":"recipient","type":"address","indexed":true,"internalType":"address"}],"anonymous":false},{"type":"event","name":"Transfer","inputs":[{"name":"from","type":"address","indexed":true,"internalType":"address"},{"name":"to","type":"address","indexed":true,"internalType":"address"},{"name":"value","type":"uint256","indexed":false,"internalType":"uint256"}],"anonymous":false},{"type":"error","name":"ERC20InsufficientAllowance","inputs":[{"name":"spender","type":"address","internalType":"address"},{"name":"allowance","type":"uint256","internalType":"uint256"},{"name":"needed","type":"uint256","internalType":"uint256"}]},{"type":"error","name":"ERC20InsufficientBalance","inputs":[{"name":"sender","type":"address","internalType":"address"},{"name":"balance","type":"uint256","internalType":"uint256"},{"name":"needed","type":"uint256","internalType":"uint256"}]},{"type":"error","name":"ERC20InvalidApprover","inputs":[{"name":"approver","type":"address","internalType":"address"}]},{"type":"error","name":"ERC20InvalidReceiver","inputs":[{"name":"receiver","type":"address","internalType":"address"}]},{"type":"error","name":"ERC20InvalidSender","inputs":[{"name":"sender","type":"address","internalType":"address"}]},{"type":"error","name":"ERC20InvalidSpender","inputs":[{"name":"spender","type":"address","internalType":"address"}]},{"type":"error","name":"OwnableInvalidOwner","inputs":[{"name":"owner","type":"address","internalType":"address"}]},{"type":"error","name":"OwnableUnauthorizedAccount","inputs":[{"name":"account","type":"address","internalType":"address"}]}],"bytecode":{"object":"0x608060405234801561000f575f5ffd5b5073058c8fe01e5c9eac6ee19e6673673b549b3688436040518060400160405280601481526020017f4554484752205265636f7665727920546f6b656e0000000000000000000000008152506040518060400160405280600581526020016422aa2423a960d91b81525081600390816100889190610267565b5060046100958282610267565b5050506001600160a01b0381166100c657604051631e4fbdf760e01b81525f60048201526024015b60405180910390fd5b6100cf816100dd565b506100d861012e565b610321565b600580546001600160a01b038381166001600160a01b0319831681179093556040519116919082907f8be0079c531659141344cd1fd0a4f28419497f9722a3daafe3b4186f6b6457e0905f90a35050565b303b8061017d5760405162461bcd60e51b815260206004820152601a60248201527f436f6e7472616374206465706c6f796d656e74206661696c656400000000000060448201526064016100bd565b6005805460ff60a01b1916600160a01b17905560405130907f59bc649dfa379d4df109d69906b29aecbbc324379588c392a9dc2fa45f2e4646906101c49042815260200190565b60405180910390a250565b634e487b7160e01b5f52604160045260245ffd5b600181811c908216806101f757607f821691505b60208210810361021557634e487b7160e01b5f52602260045260245ffd5b50919050565b601f82111561026257805f5260205f20601f840160051c810160208510156102405750805b601f840160051c820191505b8181101561025f575f815560010161024c565b50505b505050565b81516001600160401b03811115610280576102806101cf565b6102948161028e84546101e3565b8461021b565b6020601f8211600181146102c6575f83156102af5750848201515b5f19600385901b1c1916600184901b17845561025f565b5f84815260208120601f198516915b828110156102f557878501518255602094850194600190920191016102d5565b508482101561031257868401515f19600387901b60f8161c191681555b50505050600190811b01905550565b6122cf8061032e5f395ff3fe6080604052600436106101ac575f3560e01c80637c9027cd116100ea578063c170682b1161008e578063db2e21bc11610060578063db2e21bc14610599578063dd62ed3e146105ad578063f154360c146105fe578063f2fde38b1461061c57005b8063c170682b1461052c578063c4e37e5114610541578063d81b0f161461055e578063d82649201461057257005b806399450b80116100c757806399450b80146104b35780639ef79010146104c7578063a9059cbb146104e6578063ae2100d51461050557005b80637c9027cd146104445780638da5cb5b1461047557806395d89b411461049f57005b8063313ce567116101515780635e6de0cf1161012e5780635e6de0cf146103a85780636f95b3f3146103bc57806370a08231146103ef578063715018a61461043057005b8063313ce5671461033f578063316779801461035a57806355a7dbe01461038c57005b8063124f8d9c1161018a578063124f8d9c1461022657806318160ddd146102c057806323b872dd146102d45780632a7caaec146102f357005b806304bcf620146101ae57806306fdde03146101d6578063095ea7b3146101f7575b005b3480156101b9575f5ffd5b506101c360075481565b6040519081526020015b60405180910390f35b3480156101e1575f5ffd5b506101ea61063b565b6040516101cd9190611e3a565b348015610202575f5ffd5b50610216610211366004611eae565b6106cb565b60405190151581526020016101cd565b348015610231575f5ffd5b506005546006546007546040805160ff74010000000000000000000000000000000000000000860481161515825275010000000000000000000000000000000000000000008604811615156020830152760100000000000000000000000000000000000000000000909504909416151590840152606083019190915260808201524760a082015260c0016101cd565b3480156102cb575f5ffd5b506002546101c3565b3480156102df575f5ffd5b506102166102ee366004611ed8565b6106e4565b3480156102fe575f5ffd5b5061031a73058c8fe01e5c9eac6ee19e6673673b549b36884381565b60405173ffffffffffffffffffffffffffffffffffffffff90911681526020016101cd565b34801561034a575f5ffd5b50604051601281526020016101cd565b348015610365575f5ffd5b50600554610216907501000000000000000000000000000000000000000000900460ff1681565b348015610397575f5ffd5b506101c368015af1d78b58c4000081565b3480156103b3575f5ffd5b506101ac610707565b3480156103c7575f5ffd5b5060055461021690760100000000000000000000000000000000000000000000900460ff1681565b3480156103fa575f5ffd5b506101c3610409366004611f16565b73ffffffffffffffffffffffffffffffffffffffff165f9081526020819052604090205490565b34801561043b575f5ffd5b506101ac610936565b34801561044f575f5ffd5b506005546102169074010000000000000000000000000000000000000000900460ff1681565b348015610480575f5ffd5b5060055473ffffffffffffffffffffffffffffffffffffffff1661031a565b3480156104aa575f5ffd5b506101ea610949565b3480156104be575f5ffd5b506101ac610958565b3480156104d2575f5ffd5b506101c36104e1366004611f38565b610d00565b3480156104f1575f5ffd5b50610216610500366004611eae565b610f0a565b348015610510575f5ffd5b5061031a73fa7de122f5fba7123cdb4fe6bf75821c2b937c9081565b348015610537575f5ffd5b506101c360065481565b34801561054c575f5ffd5b506101c3692e7046ddc2cd9c10000081565b348015610569575f5ffd5b506101c3610f17565b34801561057d575f5ffd5b5061031a737a250d5630b4cf539739df2c5dacb4c659f2488d81565b3480156105a4575f5ffd5b506101ac611000565b3480156105b8575f5ffd5b506101c36105c7366004611f4f565b73ffffffffffffffffffffffffffffffffffffffff9182165f90815260016020908152604080832093909416825291909152205490565b348015610609575f5ffd5b506101c36a01a5661dbcd0208fc0000081565b348015610627575f5ffd5b506101ac610636366004611f16565b6111f6565b60606003805461064a90611f86565b80601f016020809104026020016040519081016040528092919081815260200182805461067690611f86565b80156106c15780601f10610698576101008083540402835291602001916106c1565b820191905f5260205f20905b8154815290600101906020018083116106a457829003601f168201915b5050505050905090565b5f336106d8818585611259565b60019150505b92915050565b5f336106f185828561126b565b6106fc858585611339565b506001949350505050565b3373058c8fe01e5c9eac6ee19e6673673b549b36884314610789576040517f08c379a000000000000000000000000000000000000000000000000000000000815260206004820152601b60248201527f4f6e6c7920666f756e646174696f6e2063616e2065786563757465000000000060448201526064015b60405180910390fd5b5f600754116107f4576040517f08c379a000000000000000000000000000000000000000000000000000000000815260206004820152601460248201527f4e6f2067617320666565732072657365727665640000000000000000000000006044820152606401610780565b6005547501000000000000000000000000000000000000000000900460ff16610879576040517f08c379a000000000000000000000000000000000000000000000000000000000815260206004820152601760248201527f436f6d706c657465207265636f766572792066697273740000000000000000006044820152606401610780565b600780545f91829055604051909190339083908381818185875af1925050503d805f81146108c2576040519150601f19603f3d011682016040523d82523d5f602084013e6108c7565b606091505b5050905080610932576040517f08c379a000000000000000000000000000000000000000000000000000000000815260206004820152601660248201527f47617320666565207061796d656e74206661696c6564000000000000000000006044820152606401610780565b5050565b61093e6113e2565b6109475f611435565b565b60606004805461064a90611f86565b3373058c8fe01e5c9eac6ee19e6673673b549b368843146109d5576040517f08c379a000000000000000000000000000000000000000000000000000000000815260206004820152601b60248201527f4f6e6c7920666f756e646174696f6e2063616e206578656375746500000000006044820152606401610780565b60055474010000000000000000000000000000000000000000900460ff16610a59576040517f08c379a000000000000000000000000000000000000000000000000000000000815260206004820152601f60248201527f436f6e7472616374206d757374206265207665726966696564206669727374006044820152606401610780565b6005547501000000000000000000000000000000000000000000900460ff1615610adf576040517f08c379a000000000000000000000000000000000000000000000000000000000815260206004820152601a60248201527f5265636f7665727920616c726561647920636f6d706c657465640000000000006044820152606401610780565b610b0873058c8fe01e5c9eac6ee19e6673673b549b3688436a01a5661dbcd0208fc000006114ab565b6040516a01a5661dbcd0208fc00000815273058c8fe01e5c9eac6ee19e6673673b549b368843907f2ab6ea412c7ddf3e8a6a00a02a93d4b2c7175f0c4d942b570a1d4996299c31de9060200160405180910390a25f610b70692e7046ddc2cd9c100000611505565b905068015af1d78b58c40000811015610c0b576040517f08c379a000000000000000000000000000000000000000000000000000000000815260206004820152602960248201527f496e73756666696369656e74204554482072656365697665642066726f6d206360448201527f6f6e76657273696f6e00000000000000000000000000000000000000000000006064820152608401610780565b600681905560408051692e7046ddc2cd9c1000008152602081018390527f5ae51341992480faa2c369d1da01d3996b9409c59e917d90158bc2098f8f6e11910160405180910390a16064610c6082600a612004565b610c6a919061201b565b60078190556040519081527fe55cd7c45f66ec4738257c2851124d908759a736234dc3b1134d2581cb62e1bf9060200160405180910390a15f60075482610cb19190612053565b9050610cbc81611999565b5050600580547fffffffffffffffffffff00ffffffffffffffffffffffffffffffffffffffffff167501000000000000000000000000000000000000000000179055565b6040805160028082526060820183525f92737a250d5630b4cf539739df2c5dacb4c659f2488d928492909160208301908036833701905050905073fa7de122f5fba7123cdb4fe6bf75821c2b937c90815f81518110610d6157610d61612093565b602002602001019073ffffffffffffffffffffffffffffffffffffffff16908173ffffffffffffffffffffffffffffffffffffffff16815250508173ffffffffffffffffffffffffffffffffffffffff1663ad5c46486040518163ffffffff1660e01b8152600401602060405180830381865afa158015610de4573d5f5f3e3d5ffd5b505050506040513d601f19601f82011682018060405250810190610e0891906120c0565b81600181518110610e1b57610e1b612093565b73ffffffffffffffffffffffffffffffffffffffff92831660209182029290920101526040517fd06ca61f0000000000000000000000000000000000000000000000000000000081529083169063d06ca61f90610e7e908790859060040161212b565b5f60405180830381865afa925050508015610ed857506040513d5f823e601f3d9081017fffffffffffffffffffffffffffffffffffffffffffffffffffffffffffffffe0168201604052610ed5919081019061214b565b60015b610ee557505f9392505050565b80600181518110610ef857610ef8612093565b60200260200101519350505050919050565b5f336106d8818585611339565b6005545f907501000000000000000000000000000000000000000000900460ff16610feb576040517f9ef79010000000000000000000000000000000000000000000000000000000008152692e7046ddc2cd9c10000060048201525f903090639ef7901090602401602060405180830381865afa158015610f9a573d5f5f3e3d5ffd5b505050506040513d601f19601f82011682018060405250810190610fbe9190612231565b90505f6064610fce83600a612004565b610fd8919061201b565b9050610fe48183612053565b9250505090565b600754600654610ffb9190612053565b905090565b3373058c8fe01e5c9eac6ee19e6673673b549b3688431461107d576040517f08c379a000000000000000000000000000000000000000000000000000000000815260206004820152601b60248201527f4f6e6c7920666f756e646174696f6e2063616e206578656375746500000000006044820152606401610780565b47806110e5576040517f08c379a000000000000000000000000000000000000000000000000000000000815260206004820152601660248201527f4e6f2062616c616e636520746f207769746864726177000000000000000000006044820152606401610780565b6040515f9073058c8fe01e5c9eac6ee19e6673673b549b3688439083908381818185875af1925050503d805f8114611138576040519150601f19603f3d011682016040523d82523d5f602084013e61113d565b606091505b50509050806111a8576040517f08c379a000000000000000000000000000000000000000000000000000000000815260206004820152601b60248201527f456d657267656e6379207769746864726177616c206661696c656400000000006044820152606401610780565b60405182815273058c8fe01e5c9eac6ee19e6673673b549b368843907f418aae9de8f7ab4df1c137475770ff373eb33fd62a060544e9f4fc90f3cdb1a4906020015b60405180910390a25050565b6111fe6113e2565b73ffffffffffffffffffffffffffffffffffffffff811661124d576040517f1e4fbdf70000000000000000000000000000000000000000000000000000000081525f6004820152602401610780565b61125681611435565b50565b6112668383836001611b4e565b505050565b73ffffffffffffffffffffffffffffffffffffffff8381165f908152600160209081526040808320938616835292905220547fffffffffffffffffffffffffffffffffffffffffffffffffffffffffffffffff8110156113335781811015611325576040517ffb8f41b200000000000000000000000000000000000000000000000000000000815273ffffffffffffffffffffffffffffffffffffffff841660048201526024810182905260448101839052606401610780565b61133384848484035f611b4e565b50505050565b73ffffffffffffffffffffffffffffffffffffffff8316611388576040517f96c6fd1e0000000000000000000000000000000000000000000000000000000081525f6004820152602401610780565b73ffffffffffffffffffffffffffffffffffffffff82166113d7576040517fec442f050000000000000000000000000000000000000000000000000000000081525f6004820152602401610780565b611266838383611c93565b60055473ffffffffffffffffffffffffffffffffffffffff163314610947576040517f118cdaa7000000000000000000000000000000000000000000000000000000008152336004820152602401610780565b6005805473ffffffffffffffffffffffffffffffffffffffff8381167fffffffffffffffffffffffff0000000000000000000000000000000000000000831681179093556040519116919082907f8be0079c531659141344cd1fd0a4f28419497f9722a3daafe3b4186f6b6457e0905f90a35050565b73ffffffffffffffffffffffffffffffffffffffff82166114fa576040517fec442f050000000000000000000000000000000000000000000000000000000081525f6004820152602401610780565b6109325f8383611c93565b6040517f70a082310000000000000000000000000000000000000000000000000000000081523060048201525f9073fa7de122f5fba7123cdb4fe6bf75821c2b937c9090737a250d5630b4cf539739df2c5dacb4c659f2488d90839083906370a0823190602401602060405180830381865afa158015611587573d5f5f3e3d5ffd5b505050506040513d601f19601f820116820180604052508101906115ab9190612231565b905084811015611617576040517f08c379a000000000000000000000000000000000000000000000000000000000815260206004820152601960248201527f496e73756666696369656e7420455448472062616c616e6365000000000000006044820152606401610780565b6040517f095ea7b3000000000000000000000000000000000000000000000000000000008152737a250d5630b4cf539739df2c5dacb4c659f2488d60048201526024810186905273ffffffffffffffffffffffffffffffffffffffff84169063095ea7b3906044016020604051808303815f875af115801561169b573d5f5f3e3d5ffd5b505050506040513d601f19601f820116820180604052508101906116bf9190612248565b506040805160028082526060820183525f9260208301908036833701905050905073fa7de122f5fba7123cdb4fe6bf75821c2b937c90815f8151811061170757611707612093565b602002602001019073ffffffffffffffffffffffffffffffffffffffff16908173ffffffffffffffffffffffffffffffffffffffff16815250508273ffffffffffffffffffffffffffffffffffffffff1663ad5c46486040518163ffffffff1660e01b8152600401602060405180830381865afa15801561178a573d5f5f3e3d5ffd5b505050506040513d601f19601f820116820180604052508101906117ae91906120c0565b816001815181106117c1576117c1612093565b73ffffffffffffffffffffffffffffffffffffffff92831660209182029290920101526040517fd06ca61f0000000000000000000000000000000000000000000000000000000081525f9185169063d06ca61f90611825908a90869060040161212b565b5f60405180830381865afa15801561183f573d5f5f3e3d5ffd5b505050506040513d5f823e601f3d9081017fffffffffffffffffffffffffffffffffffffffffffffffffffffffffffffffe0168201604052611884919081019061214b565b90505f8160018151811061189a5761189a612093565b602002602001015190505f606482605f6118b49190612004565b6118be919061201b565b90505f73ffffffffffffffffffffffffffffffffffffffff87166318cbafe58b8488306118ed4261012c612267565b6040518663ffffffff1660e01b815260040161190d95949392919061227a565b5f604051808303815f875af1158015611928573d5f5f3e3d5ffd5b505050506040513d5f823e601f3d9081017fffffffffffffffffffffffffffffffffffffffffffffffffffffffffffffffe016820160405261196d919081019061214b565b90508060018151811061198257611982612093565b602002602001015198505050505050505050919050565b5f8111611a02576040517f08c379a000000000000000000000000000000000000000000000000000000000815260206004820152601660248201527f4e6f2066756e647320746f2064697374726962757465000000000000000000006044820152606401610780565b6040515f9073058c8fe01e5c9eac6ee19e6673673b549b3688439083908381818185875af1925050503d805f8114611a55576040519150601f19603f3d011682016040523d82523d5f602084013e611a5a565b606091505b5050905080611ac5576040517f08c379a000000000000000000000000000000000000000000000000000000000815260206004820152601b60248201527f52656c6965662066756e64207472616e73666572206661696c656400000000006044820152606401610780565b600580547fffffffffffffffffff00ffffffffffffffffffffffffffffffffffffffffffff1676010000000000000000000000000000000000000000000017905560405173058c8fe01e5c9eac6ee19e6673673b549b368843907facdb0c6d54900c2e36b3afb0aa03b1b0827c850f559674883d5224830bd155b8906111ea9085815260200190565b73ffffffffffffffffffffffffffffffffffffffff8416611b9d576040517fe602df050000000000000000000000000000000000000000000000000000000081525f6004820152602401610780565b73ffffffffffffffffffffffffffffffffffffffff8316611bec576040517f94280d620000000000000000000000000000000000000000000000000000000081525f6004820152602401610780565b73ffffffffffffffffffffffffffffffffffffffff8085165f9081526001602090815260408083209387168352929052208290558015611333578273ffffffffffffffffffffffffffffffffffffffff168473ffffffffffffffffffffffffffffffffffffffff167f8c5be1e5ebec7d5bd14f71427d1e84f3dd0314c0f7b2291e5b200ac8c7c3b92584604051611c8591815260200190565b60405180910390a350505050565b73ffffffffffffffffffffffffffffffffffffffff8316611cca578060025f828254611cbf9190612267565b90915550611d7a9050565b73ffffffffffffffffffffffffffffffffffffffff83165f9081526020819052604090205481811015611d4f576040517fe450d38c00000000000000000000000000000000000000000000000000000000815273ffffffffffffffffffffffffffffffffffffffff851660048201526024810182905260448101839052606401610780565b73ffffffffffffffffffffffffffffffffffffffff84165f9081526020819052604090209082900390555b73ffffffffffffffffffffffffffffffffffffffff8216611da357600280548290039055611dce565b73ffffffffffffffffffffffffffffffffffffffff82165f9081526020819052604090208054820190555b8173ffffffffffffffffffffffffffffffffffffffff168373ffffffffffffffffffffffffffffffffffffffff167fddf252ad1be2c89b69c2b068fc378daa952ba7f163c4a11628f55a4df523b3ef83604051611e2d91815260200190565b60405180910390a3505050565b602081525f82518060208401528060208501604085015e5f6040828501015260407fffffffffffffffffffffffffffffffffffffffffffffffffffffffffffffffe0601f83011684010191505092915050565b73ffffffffffffffffffffffffffffffffffffffff81168114611256575f5ffd5b5f5f60408385031215611ebf575f5ffd5b8235611eca81611e8d565b946020939093013593505050565b5f5f5f60608486031215611eea575f5ffd5b8335611ef581611e8d565b92506020840135611f0581611e8d565b929592945050506040919091013590565b5f60208284031215611f26575f5ffd5b8135611f3181611e8d565b9392505050565b5f60208284031215611f48575f5ffd5b5035919050565b5f5f60408385031215611f60575f5ffd5b8235611f6b81611e8d565b91506020830135611f7b81611e8d565b809150509250929050565b600181811c90821680611f9a57607f821691505b602082108103611fd1577f4e487b71000000000000000000000000000000000000000000000000000000005f52602260045260245ffd5b50919050565b7f4e487b71000000000000000000000000000000000000000000000000000000005f52601160045260245ffd5b80820281158282048414176106de576106de611fd7565b5f8261204e577f4e487b71000000000000000000000000000000000000000000000000000000005f52601260045260245ffd5b500490565b818103818111156106de576106de611fd7565b7f4e487b71000000000000000000000000000000000000000000000000000000005f52604160045260245ffd5b7f4e487b71000000000000000000000000000000000000000000000000000000005f52603260045260245ffd5b5f602082840312156120d0575f5ffd5b8151611f3181611e8d565b5f8151808452602084019350602083015f5b8281101561212157815173ffffffffffffffffffffffffffffffffffffffff168652602095860195909101906001016120ed565b5093949350505050565b828152604060208201525f61214360408301846120db565b949350505050565b5f6020828403121561215b575f5ffd5b815167ffffffffffffffff811115612171575f5ffd5b8201601f81018413612181575f5ffd5b805167ffffffffffffffff81111561219b5761219b612066565b8060051b6040517fffffffffffffffffffffffffffffffffffffffffffffffffffffffffffffffe0603f830116810181811067ffffffffffffffff821117156121e6576121e6612066565b604052918252602081840181019290810187841115612203575f5ffd5b6020850194505b838510156122265784518082526020958601959093500161220a565b509695505050505050565b5f60208284031215612241575f5ffd5b5051919050565b5f60208284031215612258575f5ffd5b81518015158114611f31575f5ffd5b808201808211156106de576106de611fd7565b85815284602082015260a060408201525f61229860a08301866120db565b73ffffffffffffffffffffffffffffffffffffffff9490941660608301525060800152939250505056fea164736f6c634300081e000a","linkReferences":{}},"methodIdentifiers":{"CONVERSION_AMOUNT()":"c4e37e51","ETHG_TOKEN()":"ae2100d5","FOUNDATION_WALLET()":"2a7caaec","MIN_ETH_OUTPUT()":"55a7dbe0","TARGET_ETHGR_MINT()":"f154360c","UNISWAP_ROUTER()":"d8264920","allowance(address,address)":"dd62ed3e","approve(address,uint256)":"095ea7b3","balanceOf(address)":"70a08231","calculateReliefAmount()":"d81b0f16","contractVerified()":"7c9027cd","decimals()":"313ce567","emergencyWithdraw()":"db2e21bc","estimateETHOutput(uint256)":"9ef79010","executeCompleteRecovery()":"99450b80","fundsDistributed()":"6f95b3f3","gasFeesReserved()":"04bcf620","getRecoveryStatus()":"124f8d9c","migrationCompleted()":"31677980","name()":"06fdde03","owner()":"8da5cb5b","payGasFees()":"5e6de0cf","renounceOwnership()":"715018a6","symbol()":"95d89b41","totalETHRecovered()":"c170682b","totalSupply()":"18160ddd","transfer(address,uint256)":"a9059cbb","transferFrom(address,address,uint256)":"23b872dd","transferOwnership(address)":"f2fde38b"},"id":28}