{"abi":[{"type":"constructor","inputs":[],"stateMutability":"nonpayable"},{"type":"function","name":"allowance","inputs":[{"name":"owner","type":"address","internalType":"address"},{"name":"spender","type":"address","internalType":"address"}],"outputs":[{"name":"","type":"uint256","internalType":"uint256"}],"stateMutability":"view"},{"type":"function","name":"approve","inputs":[{"name":"spender","type":"address","internalType":"address"},{"name":"value","type":"uint256","internalType":"uint256"}],"outputs":[{"name":"","type":"bool","internalType":"bool"}],"stateMutability":"nonpayable"},{"type":"function","name":"balanceOf","inputs":[{"name":"account","type":"address","internalType":"address"}],"outputs":[{"name":"","type":"uint256","internalType":"uint256"}],"stateMutability":"view"},{"type":"function","name":"decimals","inputs":[],"outputs":[{"name":"","type":"uint8","internalType":"uint8"}],"stateMutability":"view"},{"type":"function","name":"emergencyMint","inputs":[{"name":"to","type":"address","internalType":"address"},{"name":"amount","type":"uint256","internalType":"uint256"}],"outputs":[],"stateMutability":"nonpayable"},{"type":"function","name":"hasMigrated","inputs":[{"name":"","type":"address","internalType":"address"}],"outputs":[{"name":"","type":"bool","internalType":"bool"}],"stateMutability":"view"},{"type":"function","name":"migrateMyTrappedETHG","inputs":[],"outputs":[],"stateMutability":"nonpayable"},{"type":"function","name":"migrateTrappedETHG","inputs":[{"name":"amount","type":"uint256","internalType":"uint256"}],"outputs":[],"stateMutability":"nonpayable"},{"type":"function","name":"migrationEnabled","inputs":[],"outputs":[{"name":"","type":"bool","internalType":"bool"}],"stateMutability":"view"},{"type":"function","name":"name","inputs":[],"outputs":[{"name":"","type":"string","internalType":"string"}],"stateMutability":"view"},{"type":"function","name":"owner","inputs":[],"outputs":[{"name":"","type":"address","internalType":"address"}],"stateMutability":"view"},{"type":"function","name":"renounceOwnership","inputs":[],"outputs":[],"stateMutability":"nonpayable"},{"type":"function","name":"symbol","inputs":[],"outputs":[{"name":"","type":"string","internalType":"string"}],"stateMutability":"view"},{"type":"function","name":"toggleMigration","inputs":[],"outputs":[],"stateMutability":"nonpayable"},{"type":"function","name":"totalSupply","inputs":[],"outputs":[{"name":"","type":"uint256","internalType":"uint256"}],"stateMutability":"view"},{"type":"function","name":"transfer","inputs":[{"name":"to","type":"address","internalType":"address"},{"name":"value","type":"uint256","internalType":"uint256"}],"outputs":[{"name":"","type":"bool","internalType":"bool"}],"stateMutability":"nonpayable"},{"type":"function","name":"transferFrom","inputs":[{"name":"from","type":"address","internalType":"address"},{"name":"to","type":"address","internalType":"address"},{"name":"value","type":"uint256","internalType":"uint256"}],"outputs":[{"name":"","type":"bool","internalType":"bool"}],"stateMutability":"nonpayable"},{"type":"function","name":"transferOwnership","inputs":[{"name":"newOwner","type":"address","internalType":"address"}],"outputs":[],"stateMutability":"nonpayable"},{"type":"event","name":"Approval","inputs":[{"name":"owner","type":"address","indexed":true,"internalType":"address"},{"name":"spender","type":"address","indexed":true,"internalType":"address"},{"name":"value","type":"uint256","indexed":false,"internalType":"uint256"}],"anonymous":false},{"type":"event","name":"OwnershipTransferred","inputs":[{"name":"previousOwner","type":"address","indexed":true,"internalType":"address"},{"name":"newOwner","type":"address","indexed":true,"internalType":"address"}],"anonymous":false},{"type":"event","name":"TokensMigrated","inputs":[{"name":"holder","type":"address","indexed":true,"internalType":"address"},{"name":"amount","type":"uint256","indexed":false,"internalType":"uint256"}],"anonymous":false},{"type":"event","name":"Transfer","inputs":[{"name":"from","type":"address","indexed":true,"internalType":"address"},{"name":"to","type":"address","indexed":true,"internalType":"address"},{"name":"value","type":"uint256","indexed":false,"internalType":"uint256"}],"anonymous":false},{"type":"error","name":"ERC20InsufficientAllowance","inputs":[{"name":"spender","type":"address","internalType":"address"},{"name":"allowance","type":"uint256","internalType":"uint256"},{"name":"needed","type":"uint256","internalType":"uint256"}]},{"type":"error","name":"ERC20InsufficientBalance","inputs":[{"name":"sender","type":"address","internalType":"address"},{"name":"balance","type":"uint256","internalType":"uint256"},{"name":"needed","type":"uint256","internalType":"uint256"}]},{"type":"error","name":"ERC20InvalidApprover","inputs":[{"name":"approver","type":"address","internalType":"address"}]},{"type":"error","name":"ERC20InvalidReceiver","inputs":[{"name":"receiver","type":"address","internalType":"address"}]},{"type":"error","name":"ERC20InvalidSender","inputs":[{"name":"sender","type":"address","internalType":"address"}]},{"type":"error","name":"ERC20InvalidSpender","inputs":[{"name":"spender","type":"address","internalType":"address"}]},{"type":"error","name":"OwnableInvalidOwner","inputs":[{"name":"owner","type":"address","internalType":"address"}]},{"type":"error","name":"OwnableUnauthorizedAccount","inputs":[{"name":"account","type":"address","internalType":"address"}]}],"bytecode":{"object":"0x60806040526007805460ff1916600117905534801561001c575f5ffd5b50336040518060400160405280600d81526020016c45544847205265636f7665727960981b8152506040518060400160405280600581526020016422aa2423a960d91b815250816003908161007191906101a6565b50600461007e82826101a6565b5050506001600160a01b0381166100ae57604051631e4fbdf760e01b81525f600482015260240160405180910390fd5b6100b7816100bd565b50610260565b600580546001600160a01b038381166001600160a01b0319831681179093556040519116919082907f8be0079c531659141344cd1fd0a4f28419497f9722a3daafe3b4186f6b6457e0905f90a35050565b634e487b7160e01b5f52604160045260245ffd5b600181811c9082168061013657607f821691505b60208210810361015457634e487b7160e01b5f52602260045260245ffd5b50919050565b601f8211156101a157805f5260205f20601f840160051c8101602085101561017f5750805b601f840160051c820191505b8181101561019e575f815560010161018b565b50505b505050565b81516001600160401b038111156101bf576101bf61010e565b6101d3816101cd8454610122565b8461015a565b6020601f821160018114610205575f83156101ee5750848201515b5f19600385901b1c1916600184901b17845561019e565b5f84815260208120601f198516915b828110156102345787850151825560209485019460019092019101610214565b508482101561025157868401515f19600387901b60f8161c191681555b50505050600190811b01905550565b6110848061026d5f395ff3fe608060405234801561000f575f5ffd5b506004361061012f575f3560e01c806370a08231116100ad578063a9059cbb1161007d578063d7625c8811610063578063d7625c881461026d578063dd62ed3e1461028f578063f2fde38b146102d4575f5ffd5b8063a9059cbb14610247578063d2fce0fd1461025a575f5ffd5b806370a08231146101da578063715018a61461020f5780638da5cb5b1461021757806395d89b411461023f575f5ffd5b806321fec36c11610102578063313ce567116100e8578063313ce567146101ab57806335b944bf146101ba57806343785dc9146101c7575f5ffd5b806321fec36c1461019057806323b872dd14610198575f5ffd5b806306fdde0314610133578063095ea7b3146101515780631453926d1461017457806318160ddd1461017e575b5f5ffd5b61013b6102e7565b6040516101489190610eb0565b60405180910390f35b61016461015f366004610f2b565b610377565b6040519015158152602001610148565b61017c610390565b005b6002545b604051908152602001610148565b61017c61057d565b6101646101a6366004610f53565b6105b7565b60405160128152602001610148565b6007546101649060ff1681565b61017c6101d5366004610f2b565b6105cb565b6101826101e8366004610f8d565b73ffffffffffffffffffffffffffffffffffffffff165f9081526020819052604090205490565b61017c6106c7565b60055460405173ffffffffffffffffffffffffffffffffffffffff9091168152602001610148565b61013b6106da565b610164610255366004610f2b565b6106e9565b61017c610268366004610fa6565b6106fb565b61016461027b366004610f8d565b60066020525f908152604090205460ff1681565b61018261029d366004610fbd565b73ffffffffffffffffffffffffffffffffffffffff9182165f90815260016020908152604080832093909416825291909152205490565b61017c6102e2366004610f8d565b61088a565b6060600380546102f690610fee565b80601f016020809104026020016040519081016040528092919081815260200182805461032290610fee565b801561036d5780601f106103445761010080835404028352916020019161036d565b820191905f5260205f20905b81548152906001019060200180831161035057829003601f168201915b5050505050905090565b5f336103848185856108ed565b60019150505b92915050565b73058c8fe01e5c9eac6ee19e6673673b549b3688433314610412576040517f08c379a000000000000000000000000000000000000000000000000000000000815260206004820152600f60248201527f4f6e6c7920666f756e646174696f6e000000000000000000000000000000000060448201526064015b60405180910390fd5b60075460ff1661047e576040517f08c379a000000000000000000000000000000000000000000000000000000000815260206004820152601260248201527f4d6967726174696f6e2064697361626c656400000000000000000000000000006044820152606401610409565b335f9081526006602052604090205460ff16156104f7576040517f08c379a000000000000000000000000000000000000000000000000000000000815260206004820152601060248201527f416c7265616479206d69677261746564000000000000000000000000000000006044820152606401610409565b335f81815260066020526040902080547fffffffffffffffffffffffffffffffffffffffffffffffffffffffffffffff001660011790556a01a5661dbcd0208fc000009061054590826108ff565b60405181815233907f2558d4091fc8e966ac64668ecbe596974579c9f0e5b2e11d94d1469934ab5fd89060200160405180910390a250565b610585610959565b600780547fffffffffffffffffffffffffffffffffffffffffffffffffffffffffffffff00811660ff90911615179055565b5f6105c38484846109ac565b949350505050565b6105d3610959565b73ffffffffffffffffffffffffffffffffffffffff8216610650576040517f08c379a000000000000000000000000000000000000000000000000000000000815260206004820152600f60248201527f496e76616c6964206164647265737300000000000000000000000000000000006044820152606401610409565b5f81116106b9576040517f08c379a000000000000000000000000000000000000000000000000000000000815260206004820152601760248201527f416d6f756e74206d75737420626520706f7369746976650000000000000000006044820152606401610409565b6106c382826108ff565b5050565b6106cf610959565b6106d85f6109cf565b565b6060600480546102f690610fee565b5f6106f48383610a45565b9392505050565b60075460ff16610767576040517f08c379a000000000000000000000000000000000000000000000000000000000815260206004820152601260248201527f4d6967726174696f6e2064697361626c656400000000000000000000000000006044820152606401610409565b335f9081526006602052604090205460ff16156107e0576040517f08c379a000000000000000000000000000000000000000000000000000000000815260206004820152601060248201527f416c7265616479206d69677261746564000000000000000000000000000000006044820152606401610409565b5f8111610849576040517f08c379a000000000000000000000000000000000000000000000000000000000815260206004820152601760248201527f416d6f756e74206d75737420626520706f7369746976650000000000000000006044820152606401610409565b335f81815260066020526040902080547fffffffffffffffffffffffffffffffffffffffffffffffffffffffffffffff0016600117905561054590826108ff565b610892610959565b73ffffffffffffffffffffffffffffffffffffffff81166108e1576040517f1e4fbdf70000000000000000000000000000000000000000000000000000000081525f6004820152602401610409565b6108ea816109cf565b50565b6108fa8383836001610a52565b505050565b73ffffffffffffffffffffffffffffffffffffffff821661094e576040517fec442f050000000000000000000000000000000000000000000000000000000081525f6004820152602401610409565b6106c35f8383610b98565b60055473ffffffffffffffffffffffffffffffffffffffff1633146106d8576040517f118cdaa7000000000000000000000000000000000000000000000000000000008152336004820152602401610409565b5f336109b9858285610d3f565b6109c4858585610e07565b506001949350505050565b6005805473ffffffffffffffffffffffffffffffffffffffff8381167fffffffffffffffffffffffff0000000000000000000000000000000000000000831681179093556040519116919082907f8be0079c531659141344cd1fd0a4f28419497f9722a3daafe3b4186f6b6457e0905f90a35050565b5f33610384818585610e07565b73ffffffffffffffffffffffffffffffffffffffff8416610aa1576040517fe602df050000000000000000000000000000000000000000000000000000000081525f6004820152602401610409565b73ffffffffffffffffffffffffffffffffffffffff8316610af0576040517f94280d620000000000000000000000000000000000000000000000000000000081525f6004820152602401610409565b73ffffffffffffffffffffffffffffffffffffffff8085165f9081526001602090815260408083209387168352929052208290558015610b92578273ffffffffffffffffffffffffffffffffffffffff168473ffffffffffffffffffffffffffffffffffffffff167f8c5be1e5ebec7d5bd14f71427d1e84f3dd0314c0f7b2291e5b200ac8c7c3b92584604051610b8991815260200190565b60405180910390a35b50505050565b73ffffffffffffffffffffffffffffffffffffffff8316610bcf578060025f828254610bc4919061103f565b90915550610c7f9050565b73ffffffffffffffffffffffffffffffffffffffff83165f9081526020819052604090205481811015610c54576040517fe450d38c00000000000000000000000000000000000000000000000000000000815273ffffffffffffffffffffffffffffffffffffffff851660048201526024810182905260448101839052606401610409565b73ffffffffffffffffffffffffffffffffffffffff84165f9081526020819052604090209082900390555b73ffffffffffffffffffffffffffffffffffffffff8216610ca857600280548290039055610cd3565b73ffffffffffffffffffffffffffffffffffffffff82165f9081526020819052604090208054820190555b8173ffffffffffffffffffffffffffffffffffffffff168373ffffffffffffffffffffffffffffffffffffffff167fddf252ad1be2c89b69c2b068fc378daa952ba7f163c4a11628f55a4df523b3ef83604051610d3291815260200190565b60405180910390a3505050565b73ffffffffffffffffffffffffffffffffffffffff8381165f908152600160209081526040808320938616835292905220547fffffffffffffffffffffffffffffffffffffffffffffffffffffffffffffffff811015610b925781811015610df9576040517ffb8f41b200000000000000000000000000000000000000000000000000000000815273ffffffffffffffffffffffffffffffffffffffff841660048201526024810182905260448101839052606401610409565b610b9284848484035f610a52565b73ffffffffffffffffffffffffffffffffffffffff8316610e56576040517f96c6fd1e0000000000000000000000000000000000000000000000000000000081525f6004820152602401610409565b73ffffffffffffffffffffffffffffffffffffffff8216610ea5576040517fec442f050000000000000000000000000000000000000000000000000000000081525f6004820152602401610409565b6108fa838383610b98565b602081525f82518060208401528060208501604085015e5f6040828501015260407fffffffffffffffffffffffffffffffffffffffffffffffffffffffffffffffe0601f83011684010191505092915050565b803573ffffffffffffffffffffffffffffffffffffffff81168114610f26575f5ffd5b919050565b5f5f60408385031215610f3c575f5ffd5b610f4583610f03565b946020939093013593505050565b5f5f5f60608486031215610f65575f5ffd5b610f6e84610f03565b9250610f7c60208501610f03565b929592945050506040919091013590565b5f60208284031215610f9d575f5ffd5b6106f482610f03565b5f60208284031215610fb6575f5ffd5b5035919050565b5f5f60408385031215610fce575f5ffd5b610fd783610f03565b9150610fe560208401610f03565b90509250929050565b600181811c9082168061100257607f821691505b602082108103611039577f4e487b71000000000000000000000000000000000000000000000000000000005f52602260045260245ffd5b50919050565b8082018082111561038a577f4e487b71000000000000000000000000000000000000000000000000000000005f52601160045260245ffdfea164736f6c634300081e000a","linkReferences":{}},"methodIdentifiers":{"allowance(address,address)":"dd62ed3e","approve(address,uint256)":"095ea7b3","balanceOf(address)":"70a08231","decimals()":"313ce567","emergencyMint(address,uint256)":"43785dc9","hasMigrated(address)":"d7625c88","migrateMyTrappedETHG()":"1453926d","migrateTrappedETHG(uint256)":"d2fce0fd","migrationEnabled()":"35b944bf","name()":"06fdde03","owner()":"8da5cb5b","renounceOwnership()":"715018a6","symbol()":"95d89b41","toggleMigration()":"21fec36c","totalSupply()":"18160ddd","transfer(address,uint256)":"a9059cbb","transferFrom(address,address,uint256)":"23b872dd","transferOwnership(address)":"f2fde38b"},"id":28}